:1000000002308A00562A00000A108A100A1182075C
:100010005F3406343D342F3466346B347B340E3415
:100020007F346F340A108A100A1182075F34063455
:100030006B342F3436343D347D3407347F343F34D1
:10004000AD012C082D0203184B288316861083124D
:1000500086101330F700F70B2B282E28AB1F3528FE
:10006000831606108312061439288316061083128D
:1000700006101330F700F70B3B283E288316861036
:10008000831286141330F700F70B44284728031017
:10009000AB0DAD0A21281330F700F70B4D2850287F
:1000A000080083160611831206118030AB0004305D
:1000B000AC0020202508AB000830AC0020208316BF
:1000C00006118312061508000230A50051203030B9
:1000D000A50051205030A50051200630A500512028
:1000E000622AAD012C082D0203189C2883160612E3
:1000F000831206121330F700F70B7C287F28AB1F02
:10010000862883168611831286158A2883168611FF
:10011000831286111330F700F70B8C288F28831673
:100120000612831206161330F700F70B952898284D
:100130000310AB0DAD0A72281330F700F70B9E28A1
:10014000A128080083168612831286128030AB0025
:100150000430AC0071202508AB000830AC007120E1
:10016000831686128312861608000230A500A2208C
:100170003030A500A2205030A500A2200630A500F6
:10018000A220632AA90DA90DA90DF830A90583168F
:10019000061183120611A030AB000330AC00202002
:1001A0002908AB000630AC0020202A08AB0008303C
:1001B000AC00202083160611831206150800A80142
:1001C000A601250826020318EE282808A900FF30FA
:1001D000AA00C2200130A807A60AE128080026309C
:1001E000840083130008031903290330F800F70182
:1001F000F70BF828F80BF728E330F700F70BFE2889
:100200000000800BF5280800A701A601250826029A
:10021000031812292708A900AA01C2200130A70744
:10022000A60A06290800A90DA90DA90DF830A905EF
:100230008316861283128612A030AB000330AC0006
:1002400071202908AB000630AC0071202A08AB00F1
:100250000830AC00712083168612831286160800BF
:10026000A801A6012508260203183F292808A9008D
:10027000FF30AA0013210130A807A60A322908007E
:10028000A701A6012508260203184E292708A90060
:10029000AA0113210130A707A60A42290800F80184
:1002A000F901F701FA012C08031D59292B0803193C
:1002B00073291030AD000310A90DAA0DF70DFA0D2A
:1002C0002C087A02031D66292B087702031C6F296C
:1002D0002B08F702031CFA032C08FA020314F80D8A
:1002E000F90DAD0B5B2908002608AA002508A90016
:1002F000AC016430AB004F217908A8007808A70052
:100300007908AA007808A900AC010A30AB004F2197
:100310007708A7007A08A800FA0077080420F800F8
:10032000A0002608AA002508A900AC010A30AB00ED
:100330004F217908A8007808A7007908AA00780852
:10034000A900AC010A30AB004F217708A7007A085A
:10035000A800FA0077080420F800A1002608AA00E7
:100360002508A900AC010A30AB004F217708A7008F
:100370007A08A800FA0077080420F800A200A6086E
:10038000031DC6292508633C0318CB29A9012008B1
:10039000AA00C220CE29A901AA01C220A608031DD5
:1003A000D5292508093C0318DB290130A9002108BB
:1003B000AA00C220DF290130A900AA01C220023010
:1003C000A9002208AA00C220D12A2608AA002508CE
:1003D000A900AC016430AB004F217908A80078086F
:1003E000A7007908AA007808A900AC010A30AB0080
:1003F0004F217708A7007A08A800FA007708122092
:10040000F800A0002608AA002508A900AC010A30BF
:10041000AB004F217908A8007808A7007908AA0046
:100420007808A900AC010A30AB004F217708A7007B
:100430007A08A800FA0077081220F800A100260820
:10044000AA002508A900AC010A30AB004F217708AB
:10045000A7007A08A800FA0077081220F800A20086
:10046000A608031D372A2508633C03183C2AA90166
:100470002008AA0013213F2AA901AA011321A608D6
:10048000031D462A2508093C03184C2A0130A900FF
:100490002108AA001321502A0130A900AA01132122
:1004A0000230A9002208AA001321D62A03081F3906
:1004B0008300A401A30107309F008313A001A101C1
:1004C000A2016428B5281030A500DF200230A50065
:1004D0009630A600EF20A50B682A1030A500042155
:1004E0000230A5009630A600EF20A50B722A10302E
:1004F000A500DF200230A5009630A600EF20A50B56
:100500007C2A1030A50004210230A5009630A600F8
:10051000EF20A50B862A1030A50030210230A5005F
:100520009630A600EF20A50B902A1030A5004021A0
:100530000230A5009630A600EF20A50B9A2A1030B5
:10054000A50030210230A5009630A600EF20A50BB3
:10055000A42A1030A50040210230A5009630A60044
:10056000EF20A50BAE2A83160C14C03083128B0427
:10057000A4010A30A300A408031DC62A2308013CD5
:10058000031CC62A0330A400E730A300A308031D00
:10059000CC2AA4080319EE2A2408A6002308A500E3
:1005A00074292408A6002308A500E52923080319B7
:1005B000A403A303A408031DE12A2308013C031894
:1005C000ED2A0430A500FA30A600EF20A50BE32A9F
:1005D00083168510023083128506C62ABB2A630063
:02400E00623F0F
:00000001FF
;PIC16F628
;CRC=03A3  CREATED="11-Nov-16 10:55"
